{
  "contractName": "ERC1155Mintable",
  "abi": [
    {
      "constant": true,
      "inputs": [
        {
          "name": "_owner",
          "type": "address"
        },
        {
          "name": "_id",
          "type": "uint256"
        }
      ],
      "name": "balanceOf",
      "outputs": [
        {
          "name": "",
          "type": "uint256"
        }
      ],
      "payable": false,
      "stateMutability": "view",
      "type": "function"
    },
    {
      "constant": false,
      "inputs": [
        {
          "name": "_from",
          "type": "address"
        },
        {
          "name": "_to",
          "type": "address"
        },
        {
          "name": "_ids",
          "type": "uint256[]"
        },
        {
          "name": "_values",
          "type": "uint256[]"
        },
        {
          "name": "_data",
          "type": "bytes"
        }
      ],
      "name": "safeBatchTransferFrom",
      "outputs": [],
      "payable": false,
      "stateMutability": "nonpayable",
      "type": "function"
    },
    {
      "constant": true,
      "inputs": [
        {
          "name": "_owners",
          "type": "address[]"
        },
        {
          "name": "_ids",
          "type": "uint256[]"
        }
      ],
      "name": "balanceOfBatch",
      "outputs": [
        {
          "name": "",
          "type": "uint256[]"
        }
      ],
      "payable": false,
      "stateMutability": "view",
      "type": "function"
    },
    {
      "constant": false,
      "inputs": [
        {
          "name": "_operator",
          "type": "address"
        },
        {
          "name": "_approved",
          "type": "bool"
        }
      ],
      "name": "setApprovalForAll",
      "outputs": [],
      "payable": false,
      "stateMutability": "nonpayable",
      "type": "function"
    },
    {
      "constant": true,
      "inputs": [],
      "name": "nonce",
      "outputs": [
        {
          "name": "",
          "type": "uint256"
        }
      ],
      "payable": false,
      "stateMutability": "view",
      "type": "function"
    },
    {
      "constant": true,
      "inputs": [
        {
          "name": "",
          "type": "uint256"
        }
      ],
      "name": "creators",
      "outputs": [
        {
          "name": "",
          "type": "address"
        }
      ],
      "payable": false,
      "stateMutability": "view",
      "type": "function"
    },
    {
      "constant": true,
      "inputs": [
        {
          "name": "_owner",
          "type": "address"
        },
        {
          "name": "_operator",
          "type": "address"
        }
      ],
      "name": "isApprovedForAll",
      "outputs": [
        {
          "name": "",
          "type": "bool"
        }
      ],
      "payable": false,
      "stateMutability": "view",
      "type": "function"
    },
    {
      "constant": false,
      "inputs": [
        {
          "name": "_from",
          "type": "address"
        },
        {
          "name": "_to",
          "type": "address"
        },
        {
          "name": "_id",
          "type": "uint256"
        },
        {
          "name": "_value",
          "type": "uint256"
        },
        {
          "name": "_data",
          "type": "bytes"
        }
      ],
      "name": "safeTransferFrom",
      "outputs": [],
      "payable": false,
      "stateMutability": "nonpayable",
      "type": "function"
    },
    {
      "anonymous": false,
      "inputs": [
        {
          "indexed": true,
          "name": "_operator",
          "type": "address"
        },
        {
          "indexed": true,
          "name": "_from",
          "type": "address"
        },
        {
          "indexed": true,
          "name": "_to",
          "type": "address"
        },
        {
          "indexed": false,
          "name": "_id",
          "type": "uint256"
        },
        {
          "indexed": false,
          "name": "_value",
          "type": "uint256"
        }
      ],
      "name": "TransferSingle",
      "type": "event"
    },
    {
      "anonymous": false,
      "inputs": [
        {
          "indexed": true,
          "name": "_operator",
          "type": "address"
        },
        {
          "indexed": true,
          "name": "_from",
          "type": "address"
        },
        {
          "indexed": true,
          "name": "_to",
          "type": "address"
        },
        {
          "indexed": false,
          "name": "_ids",
          "type": "uint256[]"
        },
        {
          "indexed": false,
          "name": "_values",
          "type": "uint256[]"
        }
      ],
      "name": "TransferBatch",
      "type": "event"
    },
    {
      "anonymous": false,
      "inputs": [
        {
          "indexed": true,
          "name": "_owner",
          "type": "address"
        },
        {
          "indexed": true,
          "name": "_operator",
          "type": "address"
        },
        {
          "indexed": false,
          "name": "_approved",
          "type": "bool"
        }
      ],
      "name": "ApprovalForAll",
      "type": "event"
    },
    {
      "anonymous": false,
      "inputs": [
        {
          "indexed": false,
          "name": "_value",
          "type": "string"
        },
        {
          "indexed": true,
          "name": "_id",
          "type": "uint256"
        }
      ],
      "name": "URI",
      "type": "event"
    },
    {
      "constant": true,
      "inputs": [
        {
          "name": "_interfaceId",
          "type": "bytes4"
        }
      ],
      "name": "supportsInterface",
      "outputs": [
        {
          "name": "",
          "type": "bool"
        }
      ],
      "payable": false,
      "stateMutability": "view",
      "type": "function"
    },
    {
      "constant": false,
      "inputs": [
        {
          "name": "_initialSupply",
          "type": "uint256"
        },
        {
          "name": "_uri",
          "type": "string"
        }
      ],
      "name": "create",
      "outputs": [
        {
          "name": "_id",
          "type": "uint256"
        }
      ],
      "payable": false,
      "stateMutability": "nonpayable",
      "type": "function"
    },
    {
      "constant": false,
      "inputs": [
        {
          "name": "_id",
          "type": "uint256"
        },
        {
          "name": "_to",
          "type": "address[]"
        },
        {
          "name": "_quantities",
          "type": "uint256[]"
        }
      ],
      "name": "mint",
      "outputs": [],
      "payable": false,
      "stateMutability": "nonpayable",
      "type": "function"
    },
    {
      "constant": false,
      "inputs": [
        {
          "name": "_uri",
          "type": "string"
        },
        {
          "name": "_id",
          "type": "uint256"
        }
      ],
      "name": "setURI",
      "outputs": [],
      "payable": false,
      "stateMutability": "nonpayable",
      "type": "function"
    }
  ],
  "bytecode": "0x608060405234801561001057600080fd5b50612346806100206000396000f3fe6080604052600436106100b3576000357c010000000000000000000000000000000000000000000000000000000090048062fdd58e146100b85780630118fa491461012757806301ffc9a7146101cb5780632eb2c2d61461023d5780634e1273f4146103ad57806367db3b8f146104dd578063a22cb4651461056d578063affed0e0146105ca578063cd53d08e146105f5578063cfa84fc114610670578063e985e9c514610755578063f242432a146107de575b600080fd5b3480156100c457600080fd5b50610111600480360360408110156100db57600080fd5b81019080803573ffffffffffffffffffffffffffffffffffffffff169060200190929190803590602001909291905050506108b8565b6040518082815260200191505060405180910390f35b34801561013357600080fd5b506101b56004803603604081101561014a57600080fd5b81019080803590602001909291908035906020019064010000000081111561017157600080fd5b82018360208201111561018357600080fd5b803590602001918460018302840111640100000000831117156101a557600080fd5b9091929391929390505050610912565b6040518082815260200191505060405180910390f35b3480156101d757600080fd5b50610223600480360360208110156101ee57600080fd5b8101908080357bffffffffffffffffffffffffffffffffffffffffffffffffffffffff19169060200190929190505050610ac8565b604051808215151515815260200191505060405180910390f35b34801561024957600080fd5b506103ab600480360360a081101561026057600080fd5b81019080803573ffffffffffffffffffffffffffffffffffffffff169060200190929190803573ffffffffffffffffffffffffffffffffffffffff169060200190929190803590602001906401000000008111156102bd57600080fd5b8201836020820111156102cf57600080fd5b803590602001918460208302840111640100000000831117156102f157600080fd5b90919293919293908035906020019064010000000081111561031257600080fd5b82018360208201111561032457600080fd5b8035906020019184602083028401116401000000008311171561034657600080fd5b90919293919293908035906020019064010000000081111561036757600080fd5b82018360208201111561037957600080fd5b8035906020019184600183028401116401000000008311171561039b57600080fd5b9091929391929390505050610b4d565b005b3480156103b957600080fd5b50610486600480360360408110156103d057600080fd5b81019080803590602001906401000000008111156103ed57600080fd5b8201836020820111156103ff57600080fd5b8035906020019184602083028401116401000000008311171561042157600080fd5b90919293919293908035906020019064010000000081111561044257600080fd5b82018360208201111561045457600080fd5b8035906020019184602083028401116401000000008311171561047657600080fd5b90919293919293905050506111bc565b6040518080602001828103825283818151815260200191508051906020019060200280838360005b838110156104c95780820151818401526020810190506104ae565b505050509050019250505060405180910390f35b3480156104e957600080fd5b5061056b6004803603604081101561050057600080fd5b810190808035906020019064010000000081111561051d57600080fd5b82018360208201111561052f57600080fd5b8035906020019184600183028401116401000000008311171561055157600080fd5b9091929391929390803590602001909291905050506112dc565b005b34801561057957600080fd5b506105c86004803603604081101561059057600080fd5b81019080803573ffffffffffffffffffffffffffffffffffffffff1690602001909291908035151590602001909291905050506113b4565b005b3480156105d657600080fd5b506105df6114b5565b6040518082815260200191505060405180910390f35b34801561060157600080fd5b5061062e6004803603602081101561061857600080fd5b81019080803590602001909291905050506114bb565b604051808273ffffffffffffffffffffffffffffffffffffffff1673ffffffffffffffffffffffffffffffffffffffff16815260200191505060405180910390f35b34801561067c57600080fd5b506107536004803603606081101561069357600080fd5b8101908080359060200190929190803590602001906401000000008111156106ba57600080fd5b8201836020820111156106cc57600080fd5b803590602001918460208302840111640100000000831117156106ee57600080fd5b90919293919293908035906020019064010000000081111561070f57600080fd5b82018360208201111561072157600080fd5b8035906020019184602083028401116401000000008311171561074357600080fd5b90919293919293905050506114ee565b005b34801561076157600080fd5b506107c46004803603604081101561077857600080fd5b81019080803573ffffffffffffffffffffffffffffffffffffffff169060200190929190803573ffffffffffffffffffffffffffffffffffffffff169060200190929190505050611748565b604051808215151515815260200191505060405180910390f35b3480156107ea57600080fd5b506108b6600480360360a081101561080157600080fd5b81019080803573ffffffffffffffffffffffffffffffffffffffff169060200190929190803573ffffffffffffffffffffffffffffffffffffffff16906020019092919080359060200190929190803590602001909291908035906020019064010000000081111561087257600080fd5b82018360208201111561088457600080fd5b803590602001918460018302840111640100000000831117156108a657600080fd5b90919293919293905050506117dc565b005b600080600083815260200190815260200160002060008473ffffffffffffffffffffffffffffffffffffffff1673ffffffffffffffffffffffffffffffffffffffff16815260200190815260200160002054905092915050565b60006003600081546001019190508190559050336002600083815260200190815260200160002060006101000a81548173ffffffffffffffffffffffffffffffffffffffff021916908373ffffffffffffffffffffffffffffffffffffffff1602179055508360008083815260200190815260200160002060003373ffffffffffffffffffffffffffffffffffffffff1673ffffffffffffffffffffffffffffffffffffffff168152602001908152602001600020819055503373ffffffffffffffffffffffffffffffffffffffff16600073ffffffffffffffffffffffffffffffffffffffff163373ffffffffffffffffffffffffffffffffffffffff167fc3d58168c5ae7397731d063d5bbf3d657854427343f4c083240f7aacaa2d0f628488604051808381526020018281526020019250505060405180910390a46000838390501115610ac157807f6bb7ff708619ba0610cba295a58592e0451dee2622938c8755667688daf3529b848460405180806020018281038252848482818152602001925080828437600081840152601f19601f820116905080830192505050935050505060405180910390a25b9392505050565b6000630e89341c7c0100000000000000000000000000000000000000000000000000000000027bffffffffffffffffffffffffffffffffffffffffffffffffffffffff1916827bffffffffffffffffffffffffffffffffffffffffffffffffffffffff19161415610b3c5760019050610b48565b610b4582611c4f565b90505b919050565b600073ffffffffffffffffffffffffffffffffffffffff168773ffffffffffffffffffffffffffffffffffffffff1614151515610c18576040517f08c379a00000000000000000000000000000000000000000000000000000000081526004018080602001828103825260258152602001807f64657374696e6174696f6e2061646472657373206d757374206265206e6f6e2d81526020017f7a65726f2e00000000000000000000000000000000000000000000000000000081525060400191505060405180910390fd5b8383905086869050141515610cbb576040517f08c379a00000000000000000000000000000000000000000000000000000000081526004018080602001828103825260298152602001807f5f69647320616e64205f76616c756573206172726179206c656e677468206d7581526020017f7374206d617463682e000000000000000000000000000000000000000000000081525060400191505060405180910390fd5b3373ffffffffffffffffffffffffffffffffffffffff168873ffffffffffffffffffffffffffffffffffffffff161480610d82575060011515600160008a73ffffffffffffffffffffffffffffffffffffffff1673ffffffffffffffffffffffffffffffffffffffff16815260200190815260200160002060003373ffffffffffffffffffffffffffffffffffffffff1673ffffffffffffffffffffffffffffffffffffffff16815260200190815260200160002060009054906101000a900460ff161515145b1515610e1c576040517f08c379a000000000000000000000000000000000000000000000000000000000815260040180806020018281038252602f8152602001807f4e656564206f70657261746f7220617070726f76616c20666f7220337264207081526020017f61727479207472616e73666572732e000000000000000000000000000000000081525060400191505060405180910390fd5b60008090505b86869050811015610fd65760008787838181101515610e3d57fe5b90506020020135905060008686848181101515610e5657fe5b905060200201359050610ec18160008085815260200190815260200160002060008e73ffffffffffffffffffffffffffffffffffffffff1673ffffffffffffffffffffffffffffffffffffffff16815260200190815260200160002054611d3890919063ffffffff16565b60008084815260200190815260200160002060008d73ffffffffffffffffffffffffffffffffffffffff1673ffffffffffffffffffffffffffffffffffffffff16815260200190815260200160002081905550610f7660008084815260200190815260200160002060008c73ffffffffffffffffffffffffffffffffffffffff1673ffffffffffffffffffffffffffffffffffffffff1681526020019081526020016000205482611d5190919063ffffffff16565b60008084815260200190815260200160002060008c73ffffffffffffffffffffffffffffffffffffffff1673ffffffffffffffffffffffffffffffffffffffff168152602001908152602001600020819055505050806001019050610e22565b508673ffffffffffffffffffffffffffffffffffffffff168873ffffffffffffffffffffffffffffffffffffffff163373ffffffffffffffffffffffffffffffffffffffff167f4a39dc06d4c0dbc64b70af90fd698a233a518aa5d07e595d983b8c0526c8f7fb898989896040518080602001806020018381038352878782818152602001925060200280828437600081840152601f19601f8201169050808301925050508381038252858582818152602001925060200280828437600081840152601f19601f820116905080830192505050965050505050505060405180910390a46110d88773ffffffffffffffffffffffffffffffffffffffff16611d6d565b156111b2576111b1338989898980806020026020016040519081016040528093929190818152602001838360200280828437600081840152601f19601f82011690508083019250505050505050888880806020026020016040519081016040528093929190818152602001838360200280828437600081840152601f19601f8201169050808301925050505050505087878080601f016020809104026020016040519081016040528093929190818152602001838380828437600081840152601f19601f82011690508083019250505050505050611d80565b5b5050505050505050565b606082829050858590501415156111d257600080fd5b6060858590506040519080825280602002602001820160405280156112065781602001602082028038833980820191505090505b50905060008090505b868690508110156112cf57600080868684818110151561122b57fe5b9050602002013581526020019081526020016000206000888884818110151561125057fe5b9050602002013573ffffffffffffffffffffffffffffffffffffffff1673ffffffffffffffffffffffffffffffffffffffff1673ffffffffffffffffffffffffffffffffffffffff1681526020019081526020016000205482828151811015156112b657fe5b906020019060200201818152505080600101905061120f565b5080915050949350505050565b803373ffffffffffffffffffffffffffffffffffffffff166002600083815260200190815260200160002060009054906101000a900473ffffffffffffffffffffffffffffffffffffffff1673ffffffffffffffffffffffffffffffffffffffff1614151561134a57600080fd5b817f6bb7ff708619ba0610cba295a58592e0451dee2622938c8755667688daf3529b858560405180806020018281038252848482818152602001925080828437600081840152601f19601f820116905080830192505050935050505060405180910390a250505050565b80600160003373ffffffffffffffffffffffffffffffffffffffff1673ffffffffffffffffffffffffffffffffffffffff16815260200190815260200160002060008473ffffffffffffffffffffffffffffffffffffffff1673ffffffffffffffffffffffffffffffffffffffff16815260200190815260200160002060006101000a81548160ff0219169083151502179055508173ffffffffffffffffffffffffffffffffffffffff163373ffffffffffffffffffffffffffffffffffffffff167f17307eab39ab6107e8899845ad3d59bd9653f200f220920489ca2b5937696c3183604051808215151515815260200191505060405180910390a35050565b60035481565b60026020528060005260406000206000915054906101000a900473ffffffffffffffffffffffffffffffffffffffff1681565b843373ffffffffffffffffffffffffffffffffffffffff166002600083815260200190815260200160002060009054906101000a900473ffffffffffffffffffffffffffffffffffffffff1673ffffffffffffffffffffffffffffffffffffffff1614151561155c57600080fd5b60008090505b8585905081101561173f576000868683818110151561157d57fe5b9050602002013573ffffffffffffffffffffffffffffffffffffffff169050600085858481811015156115ac57fe5b9050602002013590506116176000808b815260200190815260200160002060008473ffffffffffffffffffffffffffffffffffffffff1673ffffffffffffffffffffffffffffffffffffffff1681526020019081526020016000205482611d5190919063ffffffff16565b6000808b815260200190815260200160002060008473ffffffffffffffffffffffffffffffffffffffff1673ffffffffffffffffffffffffffffffffffffffff168152602001908152602001600020819055508173ffffffffffffffffffffffffffffffffffffffff16600073ffffffffffffffffffffffffffffffffffffffff163373ffffffffffffffffffffffffffffffffffffffff167fc3d58168c5ae7397731d063d5bbf3d657854427343f4c083240f7aacaa2d0f628c85604051808381526020018281526020019250505060405180910390a461170e8273ffffffffffffffffffffffffffffffffffffffff16611d6d565b15611732576117313333848c85602060405190810160405280600081525061208e565b5b5050806001019050611562565b50505050505050565b6000600160008473ffffffffffffffffffffffffffffffffffffffff1673ffffffffffffffffffffffffffffffffffffffff16815260200190815260200160002060008373ffffffffffffffffffffffffffffffffffffffff1673ffffffffffffffffffffffffffffffffffffffff16815260200190815260200160002060009054906101000a900460ff16905092915050565b600073ffffffffffffffffffffffffffffffffffffffff168573ffffffffffffffffffffffffffffffffffffffff1614151515611881576040517f08c379a00000000000000000000000000000000000000000000000000000000081526004018080602001828103825260158152602001807f5f746f206d757374206265206e6f6e2d7a65726f2e000000000000000000000081525060200191505060405180910390fd5b3373ffffffffffffffffffffffffffffffffffffffff168673ffffffffffffffffffffffffffffffffffffffff161480611948575060011515600160008873ffffffffffffffffffffffffffffffffffffffff1673ffffffffffffffffffffffffffffffffffffffff16815260200190815260200160002060003373ffffffffffffffffffffffffffffffffffffffff1673ffffffffffffffffffffffffffffffffffffffff16815260200190815260200160002060009054906101000a900460ff161515145b15156119e2576040517f08c379a000000000000000000000000000000000000000000000000000000000815260040180806020018281038252602f8152602001807f4e656564206f70657261746f7220617070726f76616c20666f7220337264207081526020017f61727479207472616e73666572732e000000000000000000000000000000000081525060400191505060405180910390fd5b611a448360008087815260200190815260200160002060008973ffffffffffffffffffffffffffffffffffffffff1673ffffffffffffffffffffffffffffffffffffffff16815260200190815260200160002054611d3890919063ffffffff16565b60008086815260200190815260200160002060008873ffffffffffffffffffffffffffffffffffffffff1673ffffffffffffffffffffffffffffffffffffffff16815260200190815260200160002081905550611af960008086815260200190815260200160002060008773ffffffffffffffffffffffffffffffffffffffff1673ffffffffffffffffffffffffffffffffffffffff1681526020019081526020016000205484611d5190919063ffffffff16565b60008086815260200190815260200160002060008773ffffffffffffffffffffffffffffffffffffffff1673ffffffffffffffffffffffffffffffffffffffff168152602001908152602001600020819055508473ffffffffffffffffffffffffffffffffffffffff168673ffffffffffffffffffffffffffffffffffffffff163373ffffffffffffffffffffffffffffffffffffffff167fc3d58168c5ae7397731d063d5bbf3d657854427343f4c083240f7aacaa2d0f628787604051808381526020018281526020019250505060405180910390a4611bef8573ffffffffffffffffffffffffffffffffffffffff16611d6d565b15611c4757611c46338787878787878080601f016020809104026020016040519081016040528093929190818152602001838380828437600081840152601f19601f8201169050808301925050505050505061208e565b5b505050505050565b60006301ffc9a77c0100000000000000000000000000000000000000000000000000000000027bffffffffffffffffffffffffffffffffffffffffffffffffffffffff1916827bffffffffffffffffffffffffffffffffffffffffffffffffffffffff19161480611d20575063d9b67a267c0100000000000000000000000000000000000000000000000000000000027bffffffffffffffffffffffffffffffffffffffffffffffffffffffff1916827bffffffffffffffffffffffffffffffffffffffffffffffffffffffff1916145b15611d2e5760019050611d33565b600090505b919050565b6000828211151515611d4657fe5b818303905092915050565b60008183019050828110151515611d6457fe5b80905092915050565b600080823b905060008111915050919050565b63bc197c817c0100000000000000000000000000000000000000000000000000000000027bffffffffffffffffffffffffffffffffffffffffffffffffffffffff19168473ffffffffffffffffffffffffffffffffffffffff1663bc197c8188888787876040518663ffffffff167c0100000000000000000000000000000000000000000000000000000000028152600401808673ffffffffffffffffffffffffffffffffffffffff1673ffffffffffffffffffffffffffffffffffffffff1681526020018573ffffffffffffffffffffffffffffffffffffffff1673ffffffffffffffffffffffffffffffffffffffff168152602001806020018060200180602001848103845287818151815260200191508051906020019060200280838360005b83811015611ebe578082015181840152602081019050611ea3565b50505050905001848103835286818151815260200191508051906020019060200280838360005b83811015611f00578082015181840152602081019050611ee5565b50505050905001848103825285818151815260200191508051906020019080838360005b83811015611f3f578082015181840152602081019050611f24565b50505050905090810190601f168015611f6c5780820380516001836020036101000a031916815260200191505b5098505050505050505050602060405180830381600087803b158015611f9157600080fd5b505af1158015611fa5573d6000803e3d6000fd5b505050506040513d6020811015611fbb57600080fd5b81019080805190602001909291905050507bffffffffffffffffffffffffffffffffffffffffffffffffffffffff1916141515612086576040517f08c379a000000000000000000000000000000000000000000000000000000000815260040180806020018281038252603e8152602001807f636f6e74726163742072657475726e656420616e20756e6b6e6f776e2076616c81526020017f75652066726f6d206f6e4552433131353542617463685265636569766564000081525060400191505060405180910390fd5b505050505050565b63f23a6e617c0100000000000000000000000000000000000000000000000000000000027bffffffffffffffffffffffffffffffffffffffffffffffffffffffff19168473ffffffffffffffffffffffffffffffffffffffff1663f23a6e6188888787876040518663ffffffff167c0100000000000000000000000000000000000000000000000000000000028152600401808673ffffffffffffffffffffffffffffffffffffffff1673ffffffffffffffffffffffffffffffffffffffff1681526020018573ffffffffffffffffffffffffffffffffffffffff1673ffffffffffffffffffffffffffffffffffffffff16815260200184815260200183815260200180602001828103825283818151815260200191508051906020019080838360005b838110156121cd5780820151818401526020810190506121b2565b50505050905090810190601f1680156121fa5780820380516001836020036101000a031916815260200191505b509650505050505050602060405180830381600087803b15801561221d57600080fd5b505af1158015612231573d6000803e3d6000fd5b505050506040513d602081101561224757600080fd5b81019080805190602001909291905050507bffffffffffffffffffffffffffffffffffffffffffffffffffffffff1916141515612312576040517f08c379a00000000000000000000000000000000000000000000000000000000081526004018080602001828103825260398152602001807f636f6e74726163742072657475726e656420616e20756e6b6e6f776e2076616c81526020017f75652066726f6d206f6e4552433131353552656365697665640000000000000081525060400191505060405180910390fd5b50505050505056fea165627a7a723058201e0616785791321f2376a8a63c4e84922a435b3067e9153b33d536ea9c56a56a0029",
  "source": "pragma solidity ^0.5.0;\r\n\r\nimport \"./ERC1155.sol\";\r\n\r\n/**\r\n    @dev Mintable form of ERC1155\r\n    Shows how easy it is to mint new items.\r\n*/\r\ncontract ERC1155Mintable is ERC1155 {\r\n\r\n    bytes4 constant private INTERFACE_SIGNATURE_URI = 0x0e89341c;\r\n\r\n    // id => creators\r\n    mapping (uint256 => address) public creators;\r\n\r\n    // A nonce to ensure we have a unique id each time we mint.\r\n    uint256 public nonce;\r\n\r\n    modifier creatorOnly(uint256 _id) {\r\n        require(creators[_id] == msg.sender);\r\n        _;\r\n    }\r\n\r\n    function supportsInterface(bytes4 _interfaceId)\r\n    public\r\n    view\r\n    returns (bool) {\r\n        if (_interfaceId == INTERFACE_SIGNATURE_URI) {\r\n            return true;\r\n        } else {\r\n            return super.supportsInterface(_interfaceId);\r\n        }\r\n    }\r\n\r\n    // Creates a new token type and assings _initialSupply to minter\r\n    function create(uint256 _initialSupply, string calldata _uri) external returns(uint256 _id) {\r\n\r\n        _id = ++nonce;\r\n        creators[_id] = msg.sender;\r\n        balances[_id][msg.sender] = _initialSupply;\r\n\r\n        // Transfer event with mint semantic\r\n        emit TransferSingle(msg.sender, address(0x0), msg.sender, _id, _initialSupply);\r\n\r\n        if (bytes(_uri).length > 0)\r\n            emit URI(_uri, _id);\r\n    }\r\n\r\n    // Batch mint tokens. Assign directly to _to[].\r\n    function mint(uint256 _id, address[] calldata _to, uint256[] calldata _quantities) external creatorOnly(_id) {\r\n\r\n        for (uint256 i = 0; i < _to.length; ++i) {\r\n\r\n            address to = _to[i];\r\n            uint256 quantity = _quantities[i];\r\n\r\n            // Grant the items to the caller\r\n            balances[_id][to] = quantity.add(balances[_id][to]);\r\n\r\n            // Emit the Transfer/Mint event.\r\n            // the 0x0 source address implies a mint\r\n            // It will also provide the circulating supply info.\r\n            emit TransferSingle(msg.sender, address(0x0), to, _id, quantity);\r\n\r\n            if (to.isContract()) {\r\n                _doSafeTransferAcceptanceCheck(msg.sender, msg.sender, to, _id, quantity, '');\r\n            }\r\n        }\r\n    }\r\n\r\n    function setURI(string calldata _uri, uint256 _id) external creatorOnly(_id) {\r\n        emit URI(_uri, _id);\r\n    }\r\n}\r\n",
  "sourcePath": "C:\\Users\\ptumi\\Documents\\ethereum game erc1155 git clone\\erc-1155\\lib\\ERC1155Mintable.sol",
  "compiler": {
    "name": "solc",
    "version": "0.5.1+commit.c8a2cb62.Emscripten.clang"
  },
  "schemaVersion": "3.0.1",
  "updatedAt": "2022-05-16T16:53:52.363Z",
  "devdoc": {
    "details": "Mintable form of ERC1155\r Shows how easy it is to mint new items.\r",
    "methods": {
      "balanceOf(address,uint256)": {
        "params": {
          "_id": "ID of the Token\r",
          "_owner": "The address of the token holder\r"
        },
        "return": "The _owner's balance of the Token type requested\r"
      },
      "balanceOfBatch(address[],uint256[])": {
        "params": {
          "_ids": "ID of the Tokens\r",
          "_owners": "The addresses of the token holders\r"
        },
        "return": "The _owner's balance of the Token types requested (i.e. balance for each (owner, id) pair)\r"
      },
      "isApprovedForAll(address,address)": {
        "params": {
          "_operator": "Address of authorized operator\r",
          "_owner": "The owner of the Tokens\r"
        },
        "return": "True if the operator is approved, false if not\r"
      },
      "safeBatchTransferFrom(address,address,uint256[],uint256[],bytes)": {
        "details": "Caller must be approved to manage the tokens being transferred out of the `_from` account (see \"Approval\" section of the standard).\r MUST revert if `_to` is the zero address.\r MUST revert if length of `_ids` is not the same as length of `_values`.\r MUST revert if any of the balance(s) of the holder(s) for token(s) in `_ids` is lower than the respective amount(s) in `_values` sent to the recipient.\r MUST revert on any other error.\r MUST emit `TransferSingle` or `TransferBatch` event(s) such that all the balance changes are reflected (see \"Safe Transfer Rules\" section of the standard).\r Balance changes and events MUST follow the ordering of the arrays (_ids[0]/_values[0] before _ids[1]/_values[1], etc).\r After the above conditions for the transfer(s) in the batch are met, this function MUST check if `_to` is a smart contract (e.g. code size > 0). If so, it MUST call the relevant `ERC1155TokenReceiver` hook(s) on `_to` and act appropriately (see \"Safe Transfer Rules\" section of the standard).\r",
        "params": {
          "_data": "Additional data with no specified format, MUST be sent unaltered in call to the `ERC1155TokenReceiver` hook(s) on `_to`\r",
          "_from": "Source address\r",
          "_ids": "IDs of each token type (order and length must match _values array)\r",
          "_to": "Target address\r",
          "_values": "Transfer amounts per token type (order and length must match _ids array)\r"
        }
      },
      "safeTransferFrom(address,address,uint256,uint256,bytes)": {
        "details": "Caller must be approved to manage the tokens being transferred out of the `_from` account (see \"Approval\" section of the standard).\r MUST revert if `_to` is the zero address.\r MUST revert if balance of holder for token `_id` is lower than the `_value` sent.\r MUST revert on any other error.\r MUST emit the `TransferSingle` event to reflect the balance change (see \"Safe Transfer Rules\" section of the standard).\r After the above conditions are met, this function MUST check if `_to` is a smart contract (e.g. code size > 0). If so, it MUST call `onERC1155Received` on `_to` and act appropriately (see \"Safe Transfer Rules\" section of the standard).\r",
        "params": {
          "_data": "Additional data with no specified format, MUST be sent unaltered in call to `onERC1155Received` on `_to`\r",
          "_from": "Source address\r",
          "_id": "ID of the token type\r",
          "_to": "Target address\r",
          "_value": "Transfer amount\r"
        }
      },
      "setApprovalForAll(address,bool)": {
        "details": "MUST emit the ApprovalForAll event on success.\r",
        "params": {
          "_approved": "True if the operator is approved, false to revoke approval\r",
          "_operator": "Address to add to the set of authorized operators\r"
        }
      }
    }
  },
  "userdoc": {
    "methods": {
      "balanceOf(address,uint256)": {
        "notice": "Get the balance of an account's Tokens.\r"
      },
      "balanceOfBatch(address[],uint256[])": {
        "notice": "Get the balance of multiple account/token pairs\r"
      },
      "isApprovedForAll(address,address)": {
        "notice": "Queries the approval status of an operator for a given owner.\r"
      },
      "safeBatchTransferFrom(address,address,uint256[],uint256[],bytes)": {
        "notice": "Transfers `_values` amount(s) of `_ids` from the `_from` address to the `_to` address specified (with safety call).\r"
      },
      "safeTransferFrom(address,address,uint256,uint256,bytes)": {
        "notice": "Transfers `_value` amount of an `_id` from the `_from` address to the `_to` address specified (with safety call).\r"
      },
      "setApprovalForAll(address,bool)": {
        "notice": "Enable or disable approval for a third party (\"operator\") to manage all of the caller's tokens.\r"
      }
    }
  }
}