{
  "contractName": "GameToken",
  "abi": [
    {
      "constant": true,
      "inputs": [
        {
          "name": "_owner",
          "type": "address"
        },
        {
          "name": "_id",
          "type": "uint256"
        }
      ],
      "name": "balanceOf",
      "outputs": [
        {
          "name": "",
          "type": "uint256"
        }
      ],
      "payable": false,
      "stateMutability": "view",
      "type": "function"
    },
    {
      "constant": false,
      "inputs": [
        {
          "name": "_initialSupply",
          "type": "uint256"
        },
        {
          "name": "_uri",
          "type": "string"
        }
      ],
      "name": "create",
      "outputs": [
        {
          "name": "_id",
          "type": "uint256"
        }
      ],
      "payable": false,
      "stateMutability": "nonpayable",
      "type": "function"
    },
    {
      "constant": true,
      "inputs": [
        {
          "name": "_interfaceId",
          "type": "bytes4"
        }
      ],
      "name": "supportsInterface",
      "outputs": [
        {
          "name": "",
          "type": "bool"
        }
      ],
      "payable": false,
      "stateMutability": "view",
      "type": "function"
    },
    {
      "constant": false,
      "inputs": [
        {
          "name": "_from",
          "type": "address"
        },
        {
          "name": "_to",
          "type": "address"
        },
        {
          "name": "_ids",
          "type": "uint256[]"
        },
        {
          "name": "_values",
          "type": "uint256[]"
        },
        {
          "name": "_data",
          "type": "bytes"
        }
      ],
      "name": "safeBatchTransferFrom",
      "outputs": [],
      "payable": false,
      "stateMutability": "nonpayable",
      "type": "function"
    },
    {
      "constant": true,
      "inputs": [
        {
          "name": "_owners",
          "type": "address[]"
        },
        {
          "name": "_ids",
          "type": "uint256[]"
        }
      ],
      "name": "balanceOfBatch",
      "outputs": [
        {
          "name": "",
          "type": "uint256[]"
        }
      ],
      "payable": false,
      "stateMutability": "view",
      "type": "function"
    },
    {
      "constant": false,
      "inputs": [
        {
          "name": "_uri",
          "type": "string"
        },
        {
          "name": "_id",
          "type": "uint256"
        }
      ],
      "name": "setURI",
      "outputs": [],
      "payable": false,
      "stateMutability": "nonpayable",
      "type": "function"
    },
    {
      "constant": false,
      "inputs": [
        {
          "name": "_operator",
          "type": "address"
        },
        {
          "name": "_approved",
          "type": "bool"
        }
      ],
      "name": "setApprovalForAll",
      "outputs": [],
      "payable": false,
      "stateMutability": "nonpayable",
      "type": "function"
    },
    {
      "constant": true,
      "inputs": [],
      "name": "nonce",
      "outputs": [
        {
          "name": "",
          "type": "uint256"
        }
      ],
      "payable": false,
      "stateMutability": "view",
      "type": "function"
    },
    {
      "constant": true,
      "inputs": [
        {
          "name": "",
          "type": "uint256"
        }
      ],
      "name": "creators",
      "outputs": [
        {
          "name": "",
          "type": "address"
        }
      ],
      "payable": false,
      "stateMutability": "view",
      "type": "function"
    },
    {
      "constant": true,
      "inputs": [
        {
          "name": "_owner",
          "type": "address"
        },
        {
          "name": "_operator",
          "type": "address"
        }
      ],
      "name": "isApprovedForAll",
      "outputs": [
        {
          "name": "",
          "type": "bool"
        }
      ],
      "payable": false,
      "stateMutability": "view",
      "type": "function"
    },
    {
      "constant": false,
      "inputs": [
        {
          "name": "_from",
          "type": "address"
        },
        {
          "name": "_to",
          "type": "address"
        },
        {
          "name": "_id",
          "type": "uint256"
        },
        {
          "name": "_value",
          "type": "uint256"
        },
        {
          "name": "_data",
          "type": "bytes"
        }
      ],
      "name": "safeTransferFrom",
      "outputs": [],
      "payable": false,
      "stateMutability": "nonpayable",
      "type": "function"
    },
    {
      "inputs": [],
      "payable": false,
      "stateMutability": "nonpayable",
      "type": "constructor"
    },
    {
      "anonymous": false,
      "inputs": [
        {
          "indexed": true,
          "name": "_operator",
          "type": "address"
        },
        {
          "indexed": true,
          "name": "_from",
          "type": "address"
        },
        {
          "indexed": true,
          "name": "_to",
          "type": "address"
        },
        {
          "indexed": false,
          "name": "_id",
          "type": "uint256"
        },
        {
          "indexed": false,
          "name": "_value",
          "type": "uint256"
        }
      ],
      "name": "TransferSingle",
      "type": "event"
    },
    {
      "anonymous": false,
      "inputs": [
        {
          "indexed": true,
          "name": "_operator",
          "type": "address"
        },
        {
          "indexed": true,
          "name": "_from",
          "type": "address"
        },
        {
          "indexed": true,
          "name": "_to",
          "type": "address"
        },
        {
          "indexed": false,
          "name": "_ids",
          "type": "uint256[]"
        },
        {
          "indexed": false,
          "name": "_values",
          "type": "uint256[]"
        }
      ],
      "name": "TransferBatch",
      "type": "event"
    },
    {
      "anonymous": false,
      "inputs": [
        {
          "indexed": true,
          "name": "_owner",
          "type": "address"
        },
        {
          "indexed": true,
          "name": "_operator",
          "type": "address"
        },
        {
          "indexed": false,
          "name": "_approved",
          "type": "bool"
        }
      ],
      "name": "ApprovalForAll",
      "type": "event"
    },
    {
      "anonymous": false,
      "inputs": [
        {
          "indexed": false,
          "name": "_value",
          "type": "string"
        },
        {
          "indexed": true,
          "name": "_id",
          "type": "uint256"
        }
      ],
      "name": "URI",
      "type": "event"
    },
    {
      "constant": false,
      "inputs": [
        {
          "name": "_id",
          "type": "uint256"
        },
        {
          "name": "to",
          "type": "address[]"
        },
        {
          "name": "tokenNumber",
          "type": "uint256[]"
        }
      ],
      "name": "mint",
      "outputs": [],
      "payable": false,
      "stateMutability": "nonpayable",
      "type": "function"
    }
  ],
  "bytecode": "0x608060405234801561001057600080fd5b5061217a806100206000396000f3fe6080604052600436106100b3576000357c010000000000000000000000000000000000000000000000000000000090048062fdd58e146100b85780630118fa491461012757806301ffc9a7146101cb5780632eb2c2d61461023d5780634e1273f4146103ad57806367db3b8f146104dd578063a22cb4651461056d578063affed0e0146105ca578063cd53d08e146105f5578063cfa84fc114610670578063e985e9c5146107d3578063f242432a1461085c575b600080fd5b3480156100c457600080fd5b50610111600480360360408110156100db57600080fd5b81019080803573ffffffffffffffffffffffffffffffffffffffff16906020019092919080359060200190929190505050610936565b6040518082815260200191505060405180910390f35b34801561013357600080fd5b506101b56004803603604081101561014a57600080fd5b81019080803590602001909291908035906020019064010000000081111561017157600080fd5b82018360208201111561018357600080fd5b803590602001918460018302840111640100000000831117156101a557600080fd5b9091929391929390505050610990565b6040518082815260200191505060405180910390f35b3480156101d757600080fd5b50610223600480360360208110156101ee57600080fd5b8101908080357bffffffffffffffffffffffffffffffffffffffffffffffffffffffff19169060200190929190505050610b46565b604051808215151515815260200191505060405180910390f35b34801561024957600080fd5b506103ab600480360360a081101561026057600080fd5b81019080803573ffffffffffffffffffffffffffffffffffffffff169060200190929190803573ffffffffffffffffffffffffffffffffffffffff169060200190929190803590602001906401000000008111156102bd57600080fd5b8201836020820111156102cf57600080fd5b803590602001918460208302840111640100000000831117156102f157600080fd5b90919293919293908035906020019064010000000081111561031257600080fd5b82018360208201111561032457600080fd5b8035906020019184602083028401116401000000008311171561034657600080fd5b90919293919293908035906020019064010000000081111561036757600080fd5b82018360208201111561037957600080fd5b8035906020019184600183028401116401000000008311171561039b57600080fd5b9091929391929390505050610bcb565b005b3480156103b957600080fd5b50610486600480360360408110156103d057600080fd5b81019080803590602001906401000000008111156103ed57600080fd5b8201836020820111156103ff57600080fd5b8035906020019184602083028401116401000000008311171561042157600080fd5b90919293919293908035906020019064010000000081111561044257600080fd5b82018360208201111561045457600080fd5b8035906020019184602083028401116401000000008311171561047657600080fd5b909192939192939050505061123a565b6040518080602001828103825283818151815260200191508051906020019060200280838360005b838110156104c95780820151818401526020810190506104ae565b505050509050019250505060405180910390f35b3480156104e957600080fd5b5061056b6004803603604081101561050057600080fd5b810190808035906020019064010000000081111561051d57600080fd5b82018360208201111561052f57600080fd5b8035906020019184600183028401116401000000008311171561055157600080fd5b90919293919293908035906020019092919050505061135a565b005b34801561057957600080fd5b506105c86004803603604081101561059057600080fd5b81019080803573ffffffffffffffffffffffffffffffffffffffff169060200190929190803515159060200190929190505050611432565b005b3480156105d657600080fd5b506105df611533565b6040518082815260200191505060405180910390f35b34801561060157600080fd5b5061062e6004803603602081101561061857600080fd5b8101908080359060200190929190505050611539565b604051808273ffffffffffffffffffffffffffffffffffffffff1673ffffffffffffffffffffffffffffffffffffffff16815260200191505060405180910390f35b34801561067c57600080fd5b506107d16004803603606081101561069357600080fd5b8101908080359060200190929190803590602001906401000000008111156106ba57600080fd5b8201836020820111156106cc57600080fd5b803590602001918460208302840111640100000000831117156106ee57600080fd5b919080806020026020016040519081016040528093929190818152602001838360200280828437600081840152601f19601f8201169050808301925050505050505091929192908035906020019064010000000081111561074e57600080fd5b82018360208201111561076057600080fd5b8035906020019184602083028401116401000000008311171561078257600080fd5b919080806020026020016040519081016040528093929190818152602001838360200280828437600081840152601f19601f82011690508083019250505050505050919291929050505061156c565b005b3480156107df57600080fd5b50610842600480360360408110156107f657600080fd5b81019080803573ffffffffffffffffffffffffffffffffffffffff169060200190929190803573ffffffffffffffffffffffffffffffffffffffff16906020019092919050505061157c565b604051808215151515815260200191505060405180910390f35b34801561086857600080fd5b50610934600480360360a081101561087f57600080fd5b81019080803573ffffffffffffffffffffffffffffffffffffffff169060200190929190803573ffffffffffffffffffffffffffffffffffffffff1690602001909291908035906020019092919080359060200190929190803590602001906401000000008111156108f057600080fd5b82018360208201111561090257600080fd5b8035906020019184600183028401116401000000008311171561092457600080fd5b9091929391929390505050611610565b005b600080600083815260200190815260200160002060008473ffffffffffffffffffffffffffffffffffffffff1673ffffffffffffffffffffffffffffffffffffffff16815260200190815260200160002054905092915050565b60006003600081546001019190508190559050336002600083815260200190815260200160002060006101000a81548173ffffffffffffffffffffffffffffffffffffffff021916908373ffffffffffffffffffffffffffffffffffffffff1602179055508360008083815260200190815260200160002060003373ffffffffffffffffffffffffffffffffffffffff1673ffffffffffffffffffffffffffffffffffffffff168152602001908152602001600020819055503373ffffffffffffffffffffffffffffffffffffffff16600073ffffffffffffffffffffffffffffffffffffffff163373ffffffffffffffffffffffffffffffffffffffff167fc3d58168c5ae7397731d063d5bbf3d657854427343f4c083240f7aacaa2d0f628488604051808381526020018281526020019250505060405180910390a46000838390501115610b3f57807f6bb7ff708619ba0610cba295a58592e0451dee2622938c8755667688daf3529b848460405180806020018281038252848482818152602001925080828437600081840152601f19601f820116905080830192505050935050505060405180910390a25b9392505050565b6000630e89341c7c0100000000000000000000000000000000000000000000000000000000027bffffffffffffffffffffffffffffffffffffffffffffffffffffffff1916827bffffffffffffffffffffffffffffffffffffffffffffffffffffffff19161415610bba5760019050610bc6565b610bc382611a83565b90505b919050565b600073ffffffffffffffffffffffffffffffffffffffff168773ffffffffffffffffffffffffffffffffffffffff1614151515610c96576040517f08c379a00000000000000000000000000000000000000000000000000000000081526004018080602001828103825260258152602001807f64657374696e6174696f6e2061646472657373206d757374206265206e6f6e2d81526020017f7a65726f2e00000000000000000000000000000000000000000000000000000081525060400191505060405180910390fd5b8383905086869050141515610d39576040517f08c379a00000000000000000000000000000000000000000000000000000000081526004018080602001828103825260298152602001807f5f69647320616e64205f76616c756573206172726179206c656e677468206d7581526020017f7374206d617463682e000000000000000000000000000000000000000000000081525060400191505060405180910390fd5b3373ffffffffffffffffffffffffffffffffffffffff168873ffffffffffffffffffffffffffffffffffffffff161480610e00575060011515600160008a73ffffffffffffffffffffffffffffffffffffffff1673ffffffffffffffffffffffffffffffffffffffff16815260200190815260200160002060003373ffffffffffffffffffffffffffffffffffffffff1673ffffffffffffffffffffffffffffffffffffffff16815260200190815260200160002060009054906101000a900460ff161515145b1515610e9a576040517f08c379a000000000000000000000000000000000000000000000000000000000815260040180806020018281038252602f8152602001807f4e656564206f70657261746f7220617070726f76616c20666f7220337264207081526020017f61727479207472616e73666572732e000000000000000000000000000000000081525060400191505060405180910390fd5b60008090505b868690508110156110545760008787838181101515610ebb57fe5b90506020020135905060008686848181101515610ed457fe5b905060200201359050610f3f8160008085815260200190815260200160002060008e73ffffffffffffffffffffffffffffffffffffffff1673ffffffffffffffffffffffffffffffffffffffff16815260200190815260200160002054611b6c90919063ffffffff16565b60008084815260200190815260200160002060008d73ffffffffffffffffffffffffffffffffffffffff1673ffffffffffffffffffffffffffffffffffffffff16815260200190815260200160002081905550610ff460008084815260200190815260200160002060008c73ffffffffffffffffffffffffffffffffffffffff1673ffffffffffffffffffffffffffffffffffffffff1681526020019081526020016000205482611b8590919063ffffffff16565b60008084815260200190815260200160002060008c73ffffffffffffffffffffffffffffffffffffffff1673ffffffffffffffffffffffffffffffffffffffff168152602001908152602001600020819055505050806001019050610ea0565b508673ffffffffffffffffffffffffffffffffffffffff168873ffffffffffffffffffffffffffffffffffffffff163373ffffffffffffffffffffffffffffffffffffffff167f4a39dc06d4c0dbc64b70af90fd698a233a518aa5d07e595d983b8c0526c8f7fb898989896040518080602001806020018381038352878782818152602001925060200280828437600081840152601f19601f8201169050808301925050508381038252858582818152602001925060200280828437600081840152601f19601f820116905080830192505050965050505050505060405180910390a46111568773ffffffffffffffffffffffffffffffffffffffff16611ba1565b156112305761122f338989898980806020026020016040519081016040528093929190818152602001838360200280828437600081840152601f19601f82011690508083019250505050505050888880806020026020016040519081016040528093929190818152602001838360200280828437600081840152601f19601f8201169050808301925050505050505087878080601f016020809104026020016040519081016040528093929190818152602001838380828437600081840152601f19601f82011690508083019250505050505050611bb4565b5b5050505050505050565b6060828290508585905014151561125057600080fd5b6060858590506040519080825280602002602001820160405280156112845781602001602082028038833980820191505090505b50905060008090505b8686905081101561134d5760008086868481811015156112a957fe5b905060200201358152602001908152602001600020600088888481811015156112ce57fe5b9050602002013573ffffffffffffffffffffffffffffffffffffffff1673ffffffffffffffffffffffffffffffffffffffff1673ffffffffffffffffffffffffffffffffffffffff16815260200190815260200160002054828281518110151561133457fe5b906020019060200201818152505080600101905061128d565b5080915050949350505050565b803373ffffffffffffffffffffffffffffffffffffffff166002600083815260200190815260200160002060009054906101000a900473ffffffffffffffffffffffffffffffffffffffff1673ffffffffffffffffffffffffffffffffffffffff161415156113c857600080fd5b817f6bb7ff708619ba0610cba295a58592e0451dee2622938c8755667688daf3529b858560405180806020018281038252848482818152602001925080828437600081840152601f19601f820116905080830192505050935050505060405180910390a250505050565b80600160003373ffffffffffffffffffffffffffffffffffffffff1673ffffffffffffffffffffffffffffffffffffffff16815260200190815260200160002060008473ffffffffffffffffffffffffffffffffffffffff1673ffffffffffffffffffffffffffffffffffffffff16815260200190815260200160002060006101000a81548160ff0219169083151502179055508173ffffffffffffffffffffffffffffffffffffffff163373ffffffffffffffffffffffffffffffffffffffff167f17307eab39ab6107e8899845ad3d59bd9653f200f220920489ca2b5937696c3183604051808215151515815260200191505060405180910390a35050565b60035481565b60026020528060005260406000206000915054906101000a900473ffffffffffffffffffffffffffffffffffffffff1681565b61157783838361156c565b505050565b6000600160008473ffffffffffffffffffffffffffffffffffffffff1673ffffffffffffffffffffffffffffffffffffffff16815260200190815260200160002060008373ffffffffffffffffffffffffffffffffffffffff1673ffffffffffffffffffffffffffffffffffffffff16815260200190815260200160002060009054906101000a900460ff16905092915050565b600073ffffffffffffffffffffffffffffffffffffffff168573ffffffffffffffffffffffffffffffffffffffff16141515156116b5576040517f08c379a00000000000000000000000000000000000000000000000000000000081526004018080602001828103825260158152602001807f5f746f206d757374206265206e6f6e2d7a65726f2e000000000000000000000081525060200191505060405180910390fd5b3373ffffffffffffffffffffffffffffffffffffffff168673ffffffffffffffffffffffffffffffffffffffff16148061177c575060011515600160008873ffffffffffffffffffffffffffffffffffffffff1673ffffffffffffffffffffffffffffffffffffffff16815260200190815260200160002060003373ffffffffffffffffffffffffffffffffffffffff1673ffffffffffffffffffffffffffffffffffffffff16815260200190815260200160002060009054906101000a900460ff161515145b1515611816576040517f08c379a000000000000000000000000000000000000000000000000000000000815260040180806020018281038252602f8152602001807f4e656564206f70657261746f7220617070726f76616c20666f7220337264207081526020017f61727479207472616e73666572732e000000000000000000000000000000000081525060400191505060405180910390fd5b6118788360008087815260200190815260200160002060008973ffffffffffffffffffffffffffffffffffffffff1673ffffffffffffffffffffffffffffffffffffffff16815260200190815260200160002054611b6c90919063ffffffff16565b60008086815260200190815260200160002060008873ffffffffffffffffffffffffffffffffffffffff1673ffffffffffffffffffffffffffffffffffffffff1681526020019081526020016000208190555061192d60008086815260200190815260200160002060008773ffffffffffffffffffffffffffffffffffffffff1673ffffffffffffffffffffffffffffffffffffffff1681526020019081526020016000205484611b8590919063ffffffff16565b60008086815260200190815260200160002060008773ffffffffffffffffffffffffffffffffffffffff1673ffffffffffffffffffffffffffffffffffffffff168152602001908152602001600020819055508473ffffffffffffffffffffffffffffffffffffffff168673ffffffffffffffffffffffffffffffffffffffff163373ffffffffffffffffffffffffffffffffffffffff167fc3d58168c5ae7397731d063d5bbf3d657854427343f4c083240f7aacaa2d0f628787604051808381526020018281526020019250505060405180910390a4611a238573ffffffffffffffffffffffffffffffffffffffff16611ba1565b15611a7b57611a7a338787878787878080601f016020809104026020016040519081016040528093929190818152602001838380828437600081840152601f19601f82011690508083019250505050505050611ec2565b5b505050505050565b60006301ffc9a77c0100000000000000000000000000000000000000000000000000000000027bffffffffffffffffffffffffffffffffffffffffffffffffffffffff1916827bffffffffffffffffffffffffffffffffffffffffffffffffffffffff19161480611b54575063d9b67a267c0100000000000000000000000000000000000000000000000000000000027bffffffffffffffffffffffffffffffffffffffffffffffffffffffff1916827bffffffffffffffffffffffffffffffffffffffffffffffffffffffff1916145b15611b625760019050611b67565b600090505b919050565b6000828211151515611b7a57fe5b818303905092915050565b60008183019050828110151515611b9857fe5b80905092915050565b600080823b905060008111915050919050565b63bc197c817c0100000000000000000000000000000000000000000000000000000000027bffffffffffffffffffffffffffffffffffffffffffffffffffffffff19168473ffffffffffffffffffffffffffffffffffffffff1663bc197c8188888787876040518663ffffffff167c0100000000000000000000000000000000000000000000000000000000028152600401808673ffffffffffffffffffffffffffffffffffffffff1673ffffffffffffffffffffffffffffffffffffffff1681526020018573ffffffffffffffffffffffffffffffffffffffff1673ffffffffffffffffffffffffffffffffffffffff168152602001806020018060200180602001848103845287818151815260200191508051906020019060200280838360005b83811015611cf2578082015181840152602081019050611cd7565b50505050905001848103835286818151815260200191508051906020019060200280838360005b83811015611d34578082015181840152602081019050611d19565b50505050905001848103825285818151815260200191508051906020019080838360005b83811015611d73578082015181840152602081019050611d58565b50505050905090810190601f168015611da05780820380516001836020036101000a031916815260200191505b5098505050505050505050602060405180830381600087803b158015611dc557600080fd5b505af1158015611dd9573d6000803e3d6000fd5b505050506040513d6020811015611def57600080fd5b81019080805190602001909291905050507bffffffffffffffffffffffffffffffffffffffffffffffffffffffff1916141515611eba576040517f08c379a000000000000000000000000000000000000000000000000000000000815260040180806020018281038252603e8152602001807f636f6e74726163742072657475726e656420616e20756e6b6e6f776e2076616c81526020017f75652066726f6d206f6e4552433131353542617463685265636569766564000081525060400191505060405180910390fd5b505050505050565b63f23a6e617c0100000000000000000000000000000000000000000000000000000000027bffffffffffffffffffffffffffffffffffffffffffffffffffffffff19168473ffffffffffffffffffffffffffffffffffffffff1663f23a6e6188888787876040518663ffffffff167c0100000000000000000000000000000000000000000000000000000000028152600401808673ffffffffffffffffffffffffffffffffffffffff1673ffffffffffffffffffffffffffffffffffffffff1681526020018573ffffffffffffffffffffffffffffffffffffffff1673ffffffffffffffffffffffffffffffffffffffff16815260200184815260200183815260200180602001828103825283818151815260200191508051906020019080838360005b83811015612001578082015181840152602081019050611fe6565b50505050905090810190601f16801561202e5780820380516001836020036101000a031916815260200191505b509650505050505050602060405180830381600087803b15801561205157600080fd5b505af1158015612065573d6000803e3d6000fd5b505050506040513d602081101561207b57600080fd5b81019080805190602001909291905050507bffffffffffffffffffffffffffffffffffffffffffffffffffffffff1916141515612146576040517f08c379a00000000000000000000000000000000000000000000000000000000081526004018080602001828103825260398152602001807f636f6e74726163742072657475726e656420616e20756e6b6e6f776e2076616c81526020017f75652066726f6d206f6e4552433131353552656365697665640000000000000081525060400191505060405180910390fd5b50505050505056fea165627a7a7230582074f10c465e8cc6fed47794eedff2b98af78246dabb15890f2414c15c785beab40029",
  "source": "//pragma solidity 0.5.1;\r\npragma solidity >=0.4.22 <0.9.0;\r\n\r\nimport \"../lib/ERC1155.sol\";\r\nimport \"../lib/ERC1155Mintable.sol\";\r\n\r\ncontract GameToken is ERC1155, ERC1155Mintable{\r\n\r\n  constructor() public{\r\n\r\n  }\r\n\r\n  function mint(uint256 _id,address[] memory  to, uint256[] memory tokenNumber) public   {\r\n        mint(_id, to , tokenNumber );\r\n        //mint(uint256 _id, address[] calldata _to, uint256[] calldata _quantities)\r\n\r\n    }\r\n\r\n\r\n}\r\n",
  "sourcePath": "C:/Users/ptumi/Documents/ethereum game erc1155 git clone/erc-1155/contracts/GameToken.sol",
  "compiler": {
    "name": "solc",
    "version": "0.5.1+commit.c8a2cb62.Emscripten.clang"
  },
  "schemaVersion": "3.0.1",
  "updatedAt": "2022-05-19T09:46:52.870Z",
  "devdoc": {
    "methods": {
      "balanceOf(address,uint256)": {
        "params": {
          "_id": "ID of the Token\r",
          "_owner": "The address of the token holder\r"
        },
        "return": "The _owner's balance of the Token type requested\r"
      },
      "balanceOfBatch(address[],uint256[])": {
        "params": {
          "_ids": "ID of the Tokens\r",
          "_owners": "The addresses of the token holders\r"
        },
        "return": "The _owner's balance of the Token types requested (i.e. balance for each (owner, id) pair)\r"
      },
      "isApprovedForAll(address,address)": {
        "params": {
          "_operator": "Address of authorized operator\r",
          "_owner": "The owner of the Tokens\r"
        },
        "return": "True if the operator is approved, false if not\r"
      },
      "safeBatchTransferFrom(address,address,uint256[],uint256[],bytes)": {
        "details": "Caller must be approved to manage the tokens being transferred out of the `_from` account (see \"Approval\" section of the standard).\r MUST revert if `_to` is the zero address.\r MUST revert if length of `_ids` is not the same as length of `_values`.\r MUST revert if any of the balance(s) of the holder(s) for token(s) in `_ids` is lower than the respective amount(s) in `_values` sent to the recipient.\r MUST revert on any other error.\r MUST emit `TransferSingle` or `TransferBatch` event(s) such that all the balance changes are reflected (see \"Safe Transfer Rules\" section of the standard).\r Balance changes and events MUST follow the ordering of the arrays (_ids[0]/_values[0] before _ids[1]/_values[1], etc).\r After the above conditions for the transfer(s) in the batch are met, this function MUST check if `_to` is a smart contract (e.g. code size > 0). If so, it MUST call the relevant `ERC1155TokenReceiver` hook(s) on `_to` and act appropriately (see \"Safe Transfer Rules\" section of the standard).\r",
        "params": {
          "_data": "Additional data with no specified format, MUST be sent unaltered in call to the `ERC1155TokenReceiver` hook(s) on `_to`\r",
          "_from": "Source address\r",
          "_ids": "IDs of each token type (order and length must match _values array)\r",
          "_to": "Target address\r",
          "_values": "Transfer amounts per token type (order and length must match _ids array)\r"
        }
      },
      "safeTransferFrom(address,address,uint256,uint256,bytes)": {
        "details": "Caller must be approved to manage the tokens being transferred out of the `_from` account (see \"Approval\" section of the standard).\r MUST revert if `_to` is the zero address.\r MUST revert if balance of holder for token `_id` is lower than the `_value` sent.\r MUST revert on any other error.\r MUST emit the `TransferSingle` event to reflect the balance change (see \"Safe Transfer Rules\" section of the standard).\r After the above conditions are met, this function MUST check if `_to` is a smart contract (e.g. code size > 0). If so, it MUST call `onERC1155Received` on `_to` and act appropriately (see \"Safe Transfer Rules\" section of the standard).\r",
        "params": {
          "_data": "Additional data with no specified format, MUST be sent unaltered in call to `onERC1155Received` on `_to`\r",
          "_from": "Source address\r",
          "_id": "ID of the token type\r",
          "_to": "Target address\r",
          "_value": "Transfer amount\r"
        }
      },
      "setApprovalForAll(address,bool)": {
        "details": "MUST emit the ApprovalForAll event on success.\r",
        "params": {
          "_approved": "True if the operator is approved, false to revoke approval\r",
          "_operator": "Address to add to the set of authorized operators\r"
        }
      }
    }
  },
  "userdoc": {
    "methods": {
      "balanceOf(address,uint256)": {
        "notice": "Get the balance of an account's Tokens.\r"
      },
      "balanceOfBatch(address[],uint256[])": {
        "notice": "Get the balance of multiple account/token pairs\r"
      },
      "isApprovedForAll(address,address)": {
        "notice": "Queries the approval status of an operator for a given owner.\r"
      },
      "safeBatchTransferFrom(address,address,uint256[],uint256[],bytes)": {
        "notice": "Transfers `_values` amount(s) of `_ids` from the `_from` address to the `_to` address specified (with safety call).\r"
      },
      "safeTransferFrom(address,address,uint256,uint256,bytes)": {
        "notice": "Transfers `_value` amount of an `_id` from the `_from` address to the `_to` address specified (with safety call).\r"
      },
      "setApprovalForAll(address,bool)": {
        "notice": "Enable or disable approval for a third party (\"operator\") to manage all of the caller's tokens.\r"
      }
    }
  }
}