{
  "contractName": "MarketPlace",
  "abi": [
    {
      "inputs": [
        {
          "name": "token",
          "type": "address"
        }
      ],
      "payable": false,
      "stateMutability": "nonpayable",
      "type": "constructor"
    },
    {
      "payable": true,
      "stateMutability": "payable",
      "type": "fallback"
    },
    {
      "constant": false,
      "inputs": [
        {
          "name": "tokenId",
          "type": "uint256"
        }
      ],
      "name": "buyToken",
      "outputs": [],
      "payable": true,
      "stateMutability": "payable",
      "type": "function"
    },
    {
      "constant": false,
      "inputs": [
        {
          "name": "_operator",
          "type": "address"
        },
        {
          "name": "_from",
          "type": "address"
        },
        {
          "name": "_id",
          "type": "uint256"
        },
        {
          "name": "_value",
          "type": "uint256"
        },
        {
          "name": "_data",
          "type": "bytes"
        }
      ],
      "name": "onERC1155Received",
      "outputs": [
        {
          "name": "",
          "type": "bytes4"
        }
      ],
      "payable": false,
      "stateMutability": "nonpayable",
      "type": "function"
    }
  ],
  "bytecode": "0x608060405234801561001057600080fd5b506040516020806104e58339810180604052602081101561003057600080fd5b8101908080519060200190929190505050600073ffffffffffffffffffffffffffffffffffffffff168173ffffffffffffffffffffffffffffffffffffffff161415151561007d57600080fd5b806000806101000a81548173ffffffffffffffffffffffffffffffffffffffff021916908373ffffffffffffffffffffffffffffffffffffffff160217905550655af3107a400060016000600181526020019081526020016000208190555065b5e620f48000600160006002815260200190815260200160002081905550660110d9316ec000600160006003815260200190815260200160002081905550506103ba8061012b6000396000f3fe608060405260043610610046576000357c0100000000000000000000000000000000000000000000000000000000900480632d296bf114610052578063f23a6e6114610080575b61005060016101ac565b005b61007e6004803603602081101561006857600080fd5b81019080803590602001909291905050506101ac565b005b34801561008c57600080fd5b50610158600480360360a08110156100a357600080fd5b81019080803573ffffffffffffffffffffffffffffffffffffffff169060200190929190803573ffffffffffffffffffffffffffffffffffffffff16906020019092919080359060200190929190803590602001909291908035906020019064010000000081111561011457600080fd5b82018360208201111561012657600080fd5b8035906020019184600183028401116401000000008311171561014857600080fd5b9091929391929390505050610324565b60405180827bffffffffffffffffffffffffffffffffffffffffffffffffffffffff19167bffffffffffffffffffffffffffffffffffffffffffffffffffffffff1916815260200191505060405180910390f35b6000349050600160008381526020019081526020016000205481101580156101e857506000600160008481526020019081526020016000205414155b15156101f357600080fd5b6000809054906101000a900473ffffffffffffffffffffffffffffffffffffffff1673ffffffffffffffffffffffffffffffffffffffff1663f242432a30338560016040518563ffffffff167c0100000000000000000000000000000000000000000000000000000000028152600401808573ffffffffffffffffffffffffffffffffffffffff1673ffffffffffffffffffffffffffffffffffffffff1681526020018473ffffffffffffffffffffffffffffffffffffffff1673ffffffffffffffffffffffffffffffffffffffff1681526020018381526020018281526020018060200182810382526000815260200160200195505050505050600060405180830381600087803b15801561030857600080fd5b505af115801561031c573d6000803e3d6000fd5b505050505050565b600060405180807f6f6e45524331313535526563656976656428616464726573732c61646472657381526020017f732c75696e743235362c75696e743235362c6279746573290000000000000000815250603801905060405180910390209050969550505050505056fea165627a7a7230582091e4dfd14e5b98655024c40184a2937d43d1975c55f7e576d1accc951f9dba8a0029",
  "source": "//pragma solidity 0.5.1;\r\npragma solidity >=0.4.22 <0.9.0;\r\n\r\nimport \"../lib/IERC1155.sol\";\r\n\r\n\r\ncontract MarketPlace{\r\n\r\n  IERC1155 private _token;\r\n\r\n  mapping(uint256 => uint256) price;\r\n\r\n  constructor(IERC1155 token)  public{\r\n      require(address(token) != address(0));\r\n      //Within an Ethereum transaction, the zero-account\r\n      //is just a special case used to indicate that a new contract is being deployed\r\n      _token = token;\r\n      price[1] = 100000000000000;\r\n      price[2] = 200000000000000;\r\n      price[3] = 300000000000000;\r\n\r\n  }\r\n\r\nfunction ()  external payable{\r\n    //on dépose dans le contrat depuis l'extérieur du contrat\r\n    buyToken(1);\r\n}\r\n\r\nfunction buyToken(uint256 tokenId) public payable{\r\n\r\n    uint256 weiAmount = msg.value;\r\n    require(weiAmount >= price[tokenId] && price[tokenId] != 0);\r\n\r\n    _token.safeTransferFrom(address(this), msg.sender, tokenId, 1, \"\");\r\n    //tansfer 1 token du contrat vers l'adresse de celui qui achète 1 token\r\n    //address(this) ==>adresse du contract\r\n    // msg.sender ===>adress de celui qui achète le token\r\n    //tokenId ===>id du tokens\r\n    //1 ===> nombre de token acheté\r\n}\r\n\r\n\r\n\r\nfunction onERC1155Received(address _operator, address _from, uint256 _id, uint256 _value,bytes calldata _data)\r\n external returns(bytes4){\r\n\r\n    return bytes4(keccak256(\"onERC1155Received(address,address,uint256,uint256,bytes)\"));\r\n    //Hashing Functions In Solidity Using Keccak256 ==> hash of string\r\n    //return a hash of string as stamp when transfer is done\r\n}\r\n\r\n}\r\n",
  "sourcePath": "C:/Users/ptumi/Documents/ethereum game erc1155 git clone/erc-1155/contracts/MarketPlace.sol",
  "compiler": {
    "name": "solc",
    "version": "0.5.1+commit.c8a2cb62.Emscripten.clang"
  },
  "schemaVersion": "3.0.1",
  "updatedAt": "2022-05-19T09:44:34.622Z",
  "devdoc": {
    "methods": {}
  },
  "userdoc": {
    "methods": {}
  }
}